:100000000C942A000C9491010C943C000C943C003C
:100010000C943C000C943C000C943C000C943C0070
:100020000C943C000C943C000C943C000C943C0060
:100030000C943C000C943C000C943C000C943C0050
:100040000C943C000C943C000C943C000C943C0040
:100050000C943C0011241FBECFE5D8E0DEBFCDBF1D
:1000600020E0A0E6B0E001C01D92A236B207E1F7A1
:100070000E94E7010C9475030C940000789460E0F2
:1000800070E081E490E00E94A40161E070E081E40E
:1000900090E00E94A40162E070E081E490E00E94A0
:1000A000A40160E070E082E490E00E94A40161E0BD
:1000B00070E082E490E00E94A40162E070E082E4DB
:1000C00090E00E94A40162E070E084E490E00E946D
:1000D000A0010E941A0380E00E94E202089580912C
:1000E0006000882321F0813009F487C0F8CF60E0F8
:1000F00070E081E490E00E94AC01C0E0D0E00EC06E
:1001000080916000882319F0109261000AC061E0BC
:1001100070E080E094E00E941C032196C231D1057A
:100120007CF3809160008111DACFC0E0D0E015C08F
:1001300061E070E081E490E00E94B0018091600095
:10014000882321F081E0809361000AC061E070E0C3
:1001500080E094E00E941C032196C231D10544F353
:10016000809160008111BBCF60E070E081E490E09D
:100170000E94A80161E070E081E490E00E94A80183
:1001800062E070E081E490E00E94AC01C0E0D0E069
:100190000FC080916000882321F082E0809361008D
:1001A0000AC061E070E080E094E00E941C032196A8
:1001B000C231D10574F380916000811190CFC0E00D
:1001C000D0E011C061E070E081E490E00E94B001F5
:1001D0008091600081110AC061E070E080E094E0ED
:1001E0000E941C032196C231D10564F362E070E0E5
:1001F00081E490E00E94A80172CF8091610081307B
:1002000009F44FC020F0823009F43FC050C062E0D2
:1002100070E082E490E00E94AC01C0E0D0E013C046
:1002200061E070E081E490E00E94B00161E070E084
:1002300082E490E00E94B00161E070E080E094E030
:100240000E941C032196C231D10554F362E070E094
:1002500081E490E00E94AC0160E070E082E490E014
:100260000E94AC0160E070E081E490E00E94A8018F
:1002700062E070E082E490E00E94A80163E170E037
:1002800080E094E00E941C0312C060E070E082E411
:1002900090E00E94AC0163E170E080E094E00E9495
:1002A0001C0360E070E081E490E00E94A801C0E0DF
:1002B000D0E013C061E070E081E490E00E94B00102
:1002C00061E070E082E490E00E94B00161E070E0E3
:1002D00080E094E00E941C032196C231D10554F3C2
:1002E00062E070E081E490E00E94A80160E070E0CC
:1002F00082E490E00E94A80160E070E081E490E078
:100300000E94AC0162E070E082E490E00E94AC01E7
:100310001092600062E070E082E490E00E94A80128
:10032000DECE1F920F920FB60F9211248F9381E0B1
:10033000809360008F910F900FBE0F901F901895C3
:1003400040E00E94EE01089541E00E94EE01089510
:1003500040E00E946802089541E00E94680208950A
:100360008234A1F018F4813431F008958334C9F057
:10037000843411F108952BB381E090E002C0880F1E
:10038000991F6A95E2F782278BBB089528B381E015
:1003900090E002C0880F991F6A95E2F7822788BB18
:1003A000089525B381E090E002C0880F991F6A95F7
:1003B000E2F7822785BB089522B381E090E002C076
:1003C000880F991F6A95E2F7822782BB08950E94E1
:1003D0003E000E946F0080E090E00895823431F189
:1003E00018F4813439F008958334E1F1843409F448
:1003F00054C0089541110CC02AB381E090E002C0BE
:10040000880F991F6A95E2F7809582238ABB089529
:10041000413009F05CC02AB381E090E002C0880F4F
:10042000991F6A95E2F7822B8ABB089541110CC08F
:1004300027B381E090E002C0880F991F6A95E2F728
:100440008095822387BB0895413009F040C027B3CF
:1004500081E090E002C0880F991F6A95E2F7822B35
:1004600087BB089541110CC024B381E090E002C025
:10047000880F991F6A95E2F78095822384BB0895BF
:10048000413029F524B381E090E002C0880F991F24
:100490006A95E2F7822B84BB089541110CC021B309
:1004A00081E090E002C0880F991F6A95E2F780957D
:1004B000822381BB0895413051F421B381E090E063
:1004C00002C0880F991F6A95E2F7822B81BB0895BD
:1004D000823431F118F4813439F008958334E1F134
:1004E000843409F454C0089541110CC02BB381E049
:1004F00090E002C0880F991F6A95E2F780958223E9
:100500008BBB0895413009F05CC02BB381E090E0D3
:1005100002C0880F991F6A95E2F7822B8BBB089562
:1005200041110CC028B381E090E0062E02C0880F74
:10053000991F0A94E2F78095822388BB413009F025
:1005400040C028B381E090E002C0880F991F6A95EF
:10055000E2F7822B88BB089541110CC025B381E0DE
:1005600090E0062E02C0880F991F0A94E2F780954A
:10057000822385BB413029F525B381E090E002C09C
:10058000880F991F6A95E2F7822B85BB0895411168
:100590000CC022B381E090E0062E02C0880F991FA4
:1005A0000A94E2F78095822382BB413051F422B352
:1005B00081E090E002C0880F991F6A95E2F7822BD4
:1005C00082BB08958230D1F028F4882349F081302D
:1005D00071F00895843001F1C0F0853021F1089563
:1005E00085B7836085BF8BB780648BBF089585B75F
:1005F000826085BF8BB780648BBF089585B78160AB
:1006000085BF8BB780648BBF089585B78C6085BF2D
:100610008BB780688BBF089585B7846085BF8BB723
:1006200080688BBF089585B7886085BF8BB7806869
:100630008BBF089513BE08958034910549F130F4BD
:100640008130910559F00897B1F00895811521E0A6
:10065000920759F181159440A9F10895611571052A
:1006600051F083B7816083BF08B600FEFDCF88B725
:10067000816088BF13BE6115710551F083B7826038
:1006800083BF08B600FEFDCF88B7816088BF13BE68
:100690006115710551F083B7836083BF08B600FE12
:1006A000FDCF88B7816088BF13BE6115710551F019
:1006B00083B7846083BF08B600FEFDCF88B7816032
:1006C00088BF13BE20E030E00CC083B7856083BFD5
:1006D00008B600FEFDCF88B7816088BF13BE2F5FCC
:0E06E0003F4F2617370788F30895F894FFCF91
:00000001FF
